:020000040800F2
:10000000D8060020A10100088B1D0008751A000801
:10001000891D0008110600080924000800000000DE
:100020000000000000000000000000008F1D00081C
:1000300013060008000000008D1D0008911D000837
:10004000BB010008BB010008BB010008BB010008A0
:10005000BB010008BB010008BB010008BB01000890
:10006000BB010008BB010008BB010008BB01000880
:10007000BB010008BB010008BB010008BB01000870
:10008000BB010008BB010008BB010008BB01000860
:10009000BB010008BB010008BB010008BB01000850
:1000A000BB010008BB010008BB010008BB01000840
:1000B000BB010008BB010008BB010008BB01000830
:1000C000BB010008BB010008BB010008BB01000820
:1000D000BB010008E5230008BB010008F12300086C
:1000E000BB010008BB010008BB010008BB01000800
:1000F000BB010008BB010008BB010008BB010008F0
:10010000BB010008BB010008BB010008BB010008DF
:10011000BB010008BB010008BB010008BB010008CF
:10012000BB010008BB010008BB010008BB010008BF
:10013000BB010008BB010008BB010008BB010008AF
:10014000BB010008BB010008BB010008BB0100089F
:10015000BB010008BB010008BB010008FD2300082B
:10016000BB010008BB010008BB010008BB0100087F
:10017000BB010008BB010008BB0100080000000033
:10018000BB010008BB010008DFF810D000F02EFA18
:100190000048004735260008AFF30080D80600204D
:1001A0000648804706480047FEE7FEE7FEE7FEE711
:1001B000FEE7FEE7FEE7FEE7FEE7FEE7291E000892
:1001C000890100082DE9F05F0546002092469B4614
:1001D00088460646814640241BE02846414647465D
:1001E000224600F083F953465A46C01A914110D373
:1001F00011461846224600F06AF92D1A67EB0108ED
:100200004F4622460120002100F061F917EB00095A
:100210004E41201EA4F10104DFDC484631462A4647
:100220004346BDE8F09F40EA01039B0703D009E085
:1002300008C9121F08C0042AFAD203E011F8013BD2
:1002400000F8013B521EF9D27047D2B201E000F82B
:10025000012B491EFBD270470022F6E710B513466A
:100260000A4604461946FFF7F0FF204610BD10B5B8
:10027000044604E00B7800F8013B03B1491C521E10
:10028000F8D2204610BD421C10F8011B0029FBD1FA
:10029000801A704710B5002200E0521C835C8C5C11
:1002A000A34201D1002BF8D1D8B2E1B2401A10BD5F
:1002B00070B50F4D00B92868002412E00A4602E02C
:1002C0009E4203D0521C1378002BF9D1DAB222439C
:1002D00005D02BB124B1002100F8011B04E0044635
:1002E000401C0678002EE9D12860204670BD000031
:1002F000240000202DE9FE4F804681EA0300C00F54
:100300000C46009021F0004123F00045B8EB0200BC
:10031000A94105D24046214690461C460B4602465E
:1003200023F00040104347D0270DC7F30A00C3F362
:100330000A510290401A019040286BDAC3F313006F
:1003400040F4801B0098924620B10023D2EB030AB0
:1003500063EB0B0B01985946C0F14002504600F088
:10036000B6F806460D4650465946019A00F0CEF8BA
:1003700010EB08006141002487EA115284EAE77318
:100380001A4340D0009A62B3019A012A4FEA0752F9
:1003900015DC001B61EB02014FF0004202EA07523C
:1003A000CDE90042001C41F5801132462B4600F099
:1003B000CEF803B0BDE8F08F40462146F9E7001BB8
:1003C00061EB0201001C41F5801300185B4120180D
:1003D000A2F5001747EB030140EAD570B6196D414D
:1003E00011E06D084FEA360645EAC0754FEA07523C
:1003F000001B61EB0201001C41F5801149084FEA26
:1004000030000019514132462B4603B0BDE8F04F91
:1004100000F08EB80098012240000023D0EB0202C9
:1004200063EBE073009821464FEAE074B8EB0000FC
:1004300061EB0401E9E783F000435BE781F00041F1
:1004400058E70EB5C10F80EAE0700844CA070021E2
:1004500040F233438DE80E000A460B4600F077F871
:1004600003B000BD70B5C1F30A5201F0004500248D
:10047000C1F3130140F2FF3341F480119A4201DAD3
:10048000002070BD40F233439A42A2F2334203DCB3
:10049000524200F02BF800E090402C43F1D0404253
:1004A00070BD30B50B46014600202022012409E032
:1004B00021FA02F59D4205D303FA02F5491B04FA1D
:1004C00002F52844151EA2F10102F1DC30BD202AFC
:1004D00004DB203A00FA02F1002070479140C2F19B
:1004E000200320FA03F3194390407047202A04DBCD
:1004F000203A21FA02F00021704721FA02F3D0409D
:10050000C2F120029140084319467047202A06DBB9
:10051000CB17203A41FA02F043EAE07306E041FAD1
:1005200002F3D040C2F120029140084319467047BF
:1005300010B5141E73F1000408DA401C41F10001EB
:1005400092185B411A4301D120F0010010BD2DE942
:10055000F04D92469B4611B1B1FA81F202E0B0FA39
:1005600080F220329046FFF7B2FF04460F4640EA81
:100570000A0041EA0B0153465A46084313D011467C
:1005800053EA010019D0C8F140025046FFF7AEFF10
:1005900005460E46504659464246FFF798FF084327
:1005A00005D0012004E020463946BDE8F08D00204A
:1005B000054346EAE0762C4337430A986305E40A8C
:1005C000A0EB08000022FD0A44EA47540A3002D595
:1005D00000200146E9E7010510196941DDE90845F8
:1005E00000196941BDE8F04DA2E70000064C074D37
:1005F00006E0E06840F0010394E8070098471034F3
:10060000AC42F6D3FFF7C4FD98360008B8360008B0
:10061000FEE7704772B6FEE72DE9F0410446876DAC
:1006200000F054F9064694F835000025022806D05B
:100630008020606584F834500120BDE8F081206896
:10064000016821F0160101602068416921F08001F4
:100650004161206C08B9A06C20B12068016821F0CC
:10066000080101602068016821F0010101600CE0CF
:1006700000F02CF9801B052807D920206065032095
:1006800084F8350084F83450D7E720680068C00744
:10069000EED194F85C103F208840B860012084F8C7
:1006A000350084F834500020C7E790F8351002294F
:1006B00003D08021416501207047052180F8351065
:1006C0000068016821F0010101600020704700000E
:1006D0002DE9F84FDFF8BCA1002201250AF1040B37
:1006E00003264FF00F090BF1040E00BF0B6805FA4B
:1006F00002F42340A34270D10F7907F00307012FC2
:1007000001D0022F16D187684FEA420806FA08FC8A
:1007100027EA0C07D1F80CC00CFA08FC4CEA070CCD
:10072000C0F808C04768A7430C79C4F3001494408C
:100730003C4344600C79E443A4070AD0C4684FEA00
:10074000420C06FA0CF7BC438F6807FA0CF72743F4
:10075000C7600C7904F00304022C12D1D40800EB1A
:10076000840CDCF820405707FF0E09FA07F824EA4A
:100770000804D1F8108008FA07F848EA0408CCF811
:10078000208004684FEA420C06FA0CF7BC430F794C
:1007900007F0030707FA0CF7274307604C6814F4C7
:1007A000403F70D03C4C276847F48047276024685E
:1007B00022F0030704F480440094384C07EB040C47
:1007C000DCF8084897074FEA177809FA08F7BC439E
:1007D000334FB84202D1002724E054E0314FB842F1
:1007E00001D101271EE0304FB84201D1022719E0A4
:1007F0002E4FB84201D1032714E02D4FB84201D14A
:1008000004270FE02B4FB84201D105270AE02A4FF9
:10081000B84201D1062705E0284FB84201D1072789
:1008200000E0082707FA08F72743CCF80878DAF839
:1008300000405746D1F804C09C435FEACC3C00D549
:100840001C433C60DBF800405F46D1F804C09C4389
:100850005FEA8C3C00D51C433C60DEF800407746E4
:10086000D1F804C09C435FEACC2C00D51C433C600B
:10087000084F0C373C68D1F804C09C435FEA8C2CCD
:1008800000D51C433C60521C102AFFF42FAFBDE87A
:10089000F88F0000003C0140443802400030014025
:1008A000000002400004024000080240000C024028
:1008B000001002400014024000180240001C0240D8
:1008C0000069084000D0012070470000014880689E
:1008D000704700001400002002488168027811442B
:1008E00081607047140000200B4810B5016841F486
:1008F00000710160016841F480610160016841F4A8
:1009000080710160032000F06FF8002000F006F80D
:1009100000F024F8002010BD003C024070B50D4DE1
:1009200004464FF47A712878B1FBF0F00A4909685F
:10093000B1FBF0F000F00CFB48B9102C07D20022FC
:100940002146501E00F030F800206C6070BD012080
:1009500070BD000014000020200000200A4808B5E7
:10096000016841F480410160006800F4804000901B
:100970000548001F016841F080510160006800F0E7
:100980008050009008BD000044380240002809DB78
:1009900000F01F02012191404009800000F1E02099
:1009A000C0F8001170470000F0B40E4B1B680C46F5
:1009B000C3F30223C3F10705042D00D90425191D33
:1009C000072901D2002300E0DB1E012606FA05F10B
:1009D000491E214099409E40761E16403143F0BC8E
:1009E00001F024BD0CED00E0064900F007020868A4
:1009F0004FF6FF03184040EA0220034A1043086004
:100A0000704700000CED00E00000FA052DE9F0470A
:100A10000E46050065D0DFF81481D8F80000F7B263
:100A200000F00700B04207D288F80070D8F8000044
:100A300000F00700B04254D128683D4C810712D520
:100A4000400703D5206840F4E05020602878000774
:100A500003D5206840F4604020602068A96820F039
:100A6000F000084320602878C0072DD0304968681E
:100A70000839012812D0022813D0032811D00968A0
:100A8000890700292DDA216821F003010143216043
:100A9000FFF71CFF814641F2883A0EE0096889039E
:100AA000EFE709688901ECE7FFF710FFA0EB090108
:100AB000514502D90320BDE8F0872068696800F03D
:100AC0000C00B0EB810FEFD1D8F80010404601F0D8
:100AD0000701B14207D90770006800F00700B04273
:100AE00001D00120E7E72878400705D52068E968AC
:100AF00020F4E050084320602878000706D52068DD
:100B0000296920F4604040EAC100206000F038F814
:100B10002168084AC1F30311515CC84006490860C6
:100B200006480068FFF7FAFE0020C4E7003C0240D8
:100B3000083802404435000820000020180000203A
:100B40000448054900680968044AC1F38221515CE0
:100B5000C840704720000020083802405435000883
:100B60000448054900680968044AC1F34231515CF0
:100B7000C840704720000020083802405435000863
:100B8000154810B5006810F00C02144813D0144931
:100B9000042A0FD0082A0ED10F4C241F2268236884
:100BA00002F03F025B0207D52068C0F38810A0FB6B
:100BB000010106E0084610BD2168C1F38811A1FBC0
:100BC00000010023FFF7FEFA2168C1F30141491C2F
:100BD0004900B0FBF1F010BD083802400024F400D9
:100BE00040787D012DE9F84F04006ED02078DFF8C1
:100BF0004C93C007A9F104054AD009F1040001682B
:100C0000C1F38101012908D00068C0F381000228E6
:100C10000AD1D9F80000400206D52868800337D5EC
:100C200060680028E1D033E06068B0F5803F10D004
:100C3000B0F5A02F286810D020F4803028602868F4
:100C400020F4802028606068A8B1FFF73FFE0646C8
:100C50000DE0286840F48030F4E740F480202860FC
:100C6000F7E700BFFFF732FE801B642873D82868BF
:100C70008003F7D50CE0FFF729FE064605E000BF2C
:100C8000FFF724FE801B6428F0D828688003F7D47F
:100C90002078DFF8AC8280074FF0000A3ED5A748E5
:100CA000001D016811F00C0F08D00068C0F381002E
:100CB00002280BD1D9F80000400207D42868800729
:100CC00016D5E068012800D112E033E1E068B8B140
:100CD0000120C8F80000FFF7F9FD064605E000BF57
:100CE000FFF7F4FD801B0228C0D828688007F7D5DD
:100CF0002868216920F0F80040EAC10028600DE072
:100D0000C8F800A0FFF7E2FD064604E0FFF7DEFDAD
:100D1000801B02281FD828688007F7D42078000796
:100D200022D5864F87486169703771B10121016012
:100D3000FFF7CCFD064604E0FFF7C8FD801B022844
:100D400009D838688007F7D50EE0C0F800A0FFF793
:100D5000BDFD064605E082E0FFF7B8FD801B0228D6
:100D60007DD838688007F7D42078400768D5DFF849
:100D7000CCB100270BF13C0BDBF80000C0000BD41A
:100D8000DBF8001041F08051CBF80010DBF80000D8
:100D9000012700F0805000906B4E3068C00510D4E1
:100DA000306840F480703060FFF790FD009005E0FF
:100DB000FFF78CFD0099401A022850D83068C00512
:100DC000F6D55E4EA0686C3601280FD00528306835
:100DD00010D020F001003060306820F00400306056
:100DE000A068B8B1FFF772FD00900FE0306840F0E6
:100DF0000100F4E740F004003060F7E7FFF766FD1C
:100E00000099411A41F28830814266D830688007E3
:100E1000F4D50EE0FFF75AFD009007E0FFF756FD0E
:100E20000099411A41F28830814256D830688007D3
:100E3000F4D42FB1DBF8001021F08051CBF8001072
:100E4000A069C8B33D49091D0968C1F381010229A0
:100E50004AD00228504607D0C8F8600000E03CE0C5
:100E6000FFF734FD04463BE04746C8F86000FFF753
:100E70002DFD064605E000BFFFF728FD801B022878
:100E80002BD828688001F7D4D4E907010843A16A68
:100E90002E4A490802EB0141626A41EA8211084385
:100EA00094F82C1040EA0161C9F80010012038665E
:100EB000FFF70CFD044606E03EE000BFFFF706FD2D
:100EC000001B022809D828688001F7D534E000BF4C
:100ED000FFF7FCFC001B022802D90320BDE8F88FB5
:100EE00028688001F4D427E00128F7D0D9F8000061
:100EF000E26900F4800191421CD1226A00F03F01B6
:100F0000914217D147F6C071626A0140B1EB821F6E
:100F100010D1A26A4FF0FF3300F4403103EB5202CC
:100F2000B1EB024F06D194F82C1000F07060B0EBDA
:100F3000016F01D00120D1E70020CFE70438024043
:100F400000004742800E4742007000400000FFFF53
:100F500010B5401EB0F1807F01D3012010BD4FF0CD
:100F6000E02460610F21601701F060FA0020A061A9
:100F700007202061002010BD10B590F83C20012A08
:100F800022D0012280F83C20CA688C6822F440728A
:100F900022434C6822F4806222430C6822F40062EF
:100FA00022430C6922F4805222434C6922F40052FD
:100FB0002243C969002322F480420A4301684A643B
:100FC00080F83C30002010BD022010BD70B590F8B4
:100FD0003C20012A32D0012480F83C40022280F8D3
:100FE0003D2003685A689D6822F070060A68324303
:100FF0005A60134B02689A4214D0B2F1804F11D05C
:10100000104B9A420ED0104B9A420BD00F4B9A4283
:1010100008D00F4B9A4205D00E4B9A4202D00E4B8D
:101020009A4204D1496825F080031943916080F801
:101030003D40002180F83C10084670BD022070BD84
:10104000000001400004004000080040000C004087
:1010500000040140004001400018004010B50400A9
:1010600003D094F83D0010B107E0012010BD00202E
:1010700084F83C00204600F01FF8022084F83D0070
:10108000211D206800F0D8FE012084F8460084F875
:101090003E0084F83F0084F8400084F8410084F862
:1010A000420084F8430084F8440084F8450084F842
:1010B0003D00002010BD000008B50C4A01680C4836
:1010C000914207D1016841F001010160006800F020
:1010D000010009E0074A914207D1016841F002018D
:1010E0000160006800F00200009008BD00000140AF
:1010F000443802400004014070B5044690F83C00BA
:101100000025012817D0012684F83C60022084F8CD
:101110003D002068826822F0770222F47F428260DC
:101120000868502838D00DDC20284FD005DC90B35B
:10113000102811D14AE0022070BD302846D0402846
:101140000AD13BE060282FD070280DD0B0F5805F29
:1011500003D0B0F5005F12D0012584F83D60002077
:1011600084F83C00284670BDCB68D1E90121206895
:1011700000F0D3FE2068816841F0770109E0CB6878
:10118000D1E90121206800F0C8FE2068816841F49F
:1011900080418160E1E719E0CA684968206800F091
:1011A00091FF5021206806E0CA684968206800F075
:1011B0009AFF6021206800F0BAFECEE7CA6849684D
:1011C000206800F07FFF40212068F4E72268014694
:1011D0001046F0E710B586B0044614216846FFF7C4
:1011E0003BF82368184C002118480222A34212D170
:1011F000036843F0100303600068CDE9021200F0B9
:10120000100005904FF42060CDE900020120049009
:1012100069460F4813E00F4CA34212D1036843F410
:1012200080730360006800F4807005906020009077
:10123000CDE901210320CDE9031069460648FFF7F7
:1012400047FA06B010BD00000000014030380240EF
:1012500000100240000401400020024070B5044626
:1012600090F83C0000260D4601280FD0012084F89C
:101270003C006AB1042A1DD0082A2FD00C2A3FD086
:101280000126002084F83C00304670BD022070BD6D
:10129000206800F055FE2068816941F008018161F5
:1012A0002068816921F004018161206881692A69CF
:1012B000114311E0206800F073FE2068816941F459
:1012C000006181612068816921F480618161206809
:1012D00081692A6941EA02218161D2E7206800F030
:1012E00095FE2068C16941F00801C1612068C169AB
:1012F00021F00401C1612068C1692A69114311E02C
:10130000206800F0B7FE2068C16941F40061C16146
:101310002068C16921F48061C1612068C1692A69BE
:1013200041EA0221C161ACE710B5040003D094F892
:101330003D0010B107E0012010BD002084F83C0002
:10134000204600F01EF8022084F83D00211D206890
:1013500000F072FD012084F8460084F83E0084F815
:101360003F0084F8400084F8410084F8420084F88B
:10137000430084F8440084F8450084F83D000020D0
:1013800010BD704710B50446022249B104290ED0A1
:10139000082913D094F84100012816D0012010BD6F
:1013A00094F83E000128F9D184F83E200FE094F82B
:1013B0003F000128F2D184F83F2008E094F8400073
:1013C0000128EBD184F8402001E084F8412001227B
:1013D000206800F095FD16492068164A884201D021
:1013E000904203D1436C43F4004343642068884235
:1013F00013D0B0F1804F10D00F4988420DD00F4963
:1014000088420AD00E49884207D0904205D00D4943
:10141000884202D00C49884204D1816801F007015A
:10142000062903D0016841F001010160002010BDD0
:10143000000001400004014000040040000800409A
:10144000000C0040004001400018004030B5044648
:101450000D460068002200F053FD194B41F21111B6
:1014600020688A10984202D0164B984209D1036A2C
:101470000B4206D1036A134203D1436C23F40043A9
:1014800043642068036A0B4206D1016A114203D10A
:10149000016821F00101016001203DB1042D08D057
:1014A000082D09D084F84100002030BD84F83E00AA
:1014B000FAE784F83F00F7E784F84000F4E700001B
:1014C000000001400004014070477047F8B5016812
:1014D00004460868CA684B6910F00F0F4FF000050A
:1014E00059D003F0010602F49077374365D0C10765
:1014F00005D0D10503D5216C41F0010121644107DC
:1015000005D5D90703D0216C41F002012164810780
:1015100005D5D90703D0216C41F0040121640107EE
:1015200007D502F02001314303D0216C41F00801BE
:101530002164216C00293AD0800604D5900602D59A
:10154000204600F011FE20684069216CC0F3801035
:10155000090700D460B3204600F0DFFD2068406931
:10156000400621D52068143050E8001F21F04001CA
:1015700040E80012002AF5D1A06BA8B16C490165C2
:10158000A06BFFF792F8002811D0A06B016D01B09D
:10159000BDE8F040084783060FD593060DD52046D9
:1015A000BDE8F84000F0E0BD2046FFF78EFFF8BD33
:1015B0002046FFF78AFF2564F8BD266B2023012E05
:1015C00079D1C60677D5D60675D5086848680090E3
:1015D0004869400640D5A16B086840680004000CCB
:1015E000EAD0A28D8242E7D9E085C869B0F5807F54
:1015F0002DD020680C3050E8001F21F4807140E8A5
:101600000012002AF5D12068143050E8001F21F0A4
:10161000010140E80012002AF5D12068143050E89A
:10162000001F21F0400140E80012002AF5D184F8A3
:101630003E30256320680C3050E8001F21F0100177
:1016400040E80012002AF5D1A06BFEF7E5FFA08D5F
:10165000E18D401A81B229E0A08DE18D401A81B25E
:10166000E08D0028A8D00029A6D020680C3050E8D2
:10167000002F22F4907240E80026002EF5D1206859
:10168000143050E8002F22F0010240E80026002E1E
:10169000F5D184F83E30256320680C3050E8002FE7
:1016A00022F0100240E80023002BF5D12046FFF77E
:1016B0000BFFF8BDFFE705062BD5150629D594F8D5
:1016C0003D002128F5D1A068B0F5805F01D12069E7
:1016D000B0B1206A411C2162216800784860E08C2A
:1016E000401E0004000CE084E3D12068C16821F0B2
:1016F0008001C1602068C16841F04001C160D8E745
:10170000206A0088C0F308004860206A801C2062BC
:10171000E5E74006CDD55006CBD5CA68204622F075
:101720004002CA6084F83D3000F0A3F9C1E7000030
:101730000B21000870B5040004D094F83D0000258A
:1017400010B106E0012070BD84F83C50204600F046
:1017500023F8242084F83D002068C16821F400515A
:10176000C160204600F060FD2068016921F49041CD
:1017700001612068416921F02A0141612068C16846
:1017800041F40051C1602564202084F83D0084F8B4
:101790003E00002070BD0000F0B587B00446142163
:1017A0006846FEF759FD4049DFF8F8E0D4F800C07C
:1017B00000223D4B1439C0260224032507273B484D
:1017C000F44520D1D3F800C04CF0100CC3F800C091
:1017D0001B6803F0100305930B6843F002030B60D2
:1017E0000968009601F00201CDE904710395CDE985
:1017F00001426946FEF76CFF002211462520FFF7E3
:10180000D3F8252025E0DFF8A8E0F44525D1264BC4
:101810001B1F1E6846F480261E601B6803F480238D
:1018200005930B6843F002030B60096802AB01F0FB
:10183000020105914FF44061CDE9001483E8A40052
:101840006946FEF745FF002211462720FFF7ACF856
:101850002720FFF79BF807B0F0BD16488445FAD162
:10186000186840F020001860186800F0200005900B
:10187000086840F0040008600868009600F0040062
:1018800005900820CDE90350CDE9014269460A4898
:10189000FEF71EFF002211464720FFF785F847207C
:1018A000D7E7000000100140443802400004024025
:1018B00000480040001401400008024090F83E300B
:1018C000202B0ED159B152B190F83C30012B08D0E9
:1018D000012380F83C300023036300F02BBD01207E
:1018E00070470220704700002DE9F04105462A4864
:1018F000854234D1294C00264FF480772078FF2888
:101900000CD3267039462648FEF7A6FC4FF6FF7327
:101910000A2224A1204800F053F81AE020496278F6
:101920000A54401CC0B22070084410F8031C3B2924
:101930000FD110F8021C0D290BD110F8010C0A2848
:1019400007D1174800F0BCFF267039461448FEF74F
:1019500083FC12490122491C0F48FFF7AFFF1548CD
:10196000854209D10D48C01C01F0E2F80B4908225C
:10197000C91C1048FFF7A2FF0F4885420AD10F4843
:10198000C07B00F059FFBDE8F04110220B490A4826
:10199000FFF794BFBDE8F08108020020000000209E
:1019A0002C00002044617461206F766572666C6F54
:1019B000772100004C020020900200202C01002022
:1019C0002DE9F843044690F83D001F4616460D46A3
:1019D00020284CD1C5B1BEB194F83C00012846D0B6
:1019E000012084F83C004FF00008C4F8408021201A
:1019F00084F83D00FEF76AFFA6848146E684A0686D
:101A0000B0F5805F03D004E00120BDE8F8832069D1
:101A100028B12E465FF0000584F83C800EE00026D9
:101A2000FAE78021204600F0A0FCA0B9AEB116F87C
:101A3000010B21684860E08C401EE084E08C4B463E
:101A40004FF0000200970028EBD14FF040012046F4
:101A500000F08BFC30B10320D7E735F8020BC0F360
:101A60000800E6E7202084F83D000020CDE70220B2
:101A7000CBE77047FEE7000010B586B0142168463A
:101A8000FEF7EAFB26480024016841F004010160EA
:101A9000016801F004010591016841F00101016054
:101AA000016801F001010591016841F01001016038
:101AB000016801F010010591016841F00201016027
:101AC000016801F002010591016841F040010160E7
:101AD000016801F040010591016841F480710160E5
:101AE0000068694600F4807005904FF40050CDE91D
:101AF00000040C480294FEF7EBFD0120CDE9000440
:101B0000694609480294FEF7E3FD1C20CDE9000474
:101B1000694606480294FEF7DBFD06B010BD0000E2
:101B20003038024000080240000002400018024025
:101B300010B596B000240F9410941194129413943D
:101B40001C2168461494FEF787FB202107A8FEF7A6
:101B500083FB2C482A4901600121C0E9011441F2AC
:101B6000DF51C0E9031444618461FFF777FA08B1DB
:101B7000FEF750FD4FF480500F900FA92148FFF75A
:101B8000BBFA08B1FEF746FD1E48FFF7CDFB08B1D2
:101B9000FEF740FD139413A91A481494FFF716FAA0
:101BA00008B1FEF737FD6020CDE9000402940394EC
:101BB000049405940022694612480694FFF74EFBF0
:101BC00008B1FEF727FD042269460E48FFF746FBE1
:101BD00008B1FEF71FFD0794089409944FF40050D4
:101BE0000A94CDE90B4007A906480E94FFF7C4F903
:101BF00008B1FEF70FFD0348FFF7ECFA16B010BD71
:101C0000000001407801002010B596B000240F9428
:101C100010941194129413941C2168461494FEF7A6
:101C20001BFB202107A8FEF717FB2C482A4901605F
:101C30000121C0E9011441F2DF51C0E903144461FC
:101C40008461FFF70BFA08B1FEF7E4FC4FF4805013
:101C50000F900FA92148FFF74FFA08B1FEF7DAFC01
:101C60001E48FFF761FB08B1FEF7D4FC139413A9DB
:101C70001A481494FFF7AAF908B1FEF7CBFC6020CC
:101C8000CDE900040294039404940594002269466B
:101C900012480694FFF7E2FA08B1FEF7BBFC0422F3
:101CA00069460E48FFF7DAFA08B1FEF7B3FC07946D
:101CB000089409944FF400500A94CDE90B4007A909
:101CC00006480E94FFF758F908B1FEF7A3FC034845
:101CD000FFF780FA16B010BD00040140C0010020DB
:101CE0000C4810B50A4901604FF4E1314160002110
:101CF00081600C22C160C0E904128161C161FFF7FB
:101D000019FD002803D0BDE81040FEF783BC10BDCC
:101D100000100140080200200C4810B50A4901607B
:101D20004FF4E1314160002181600C22C160C0E9C3
:101D300004128161C161FFF7FDFC002803D0BDE8FA
:101D40001040FEF767BC10BD004800404C02002068
:101D50000C4810B50A4901604FF41651416000214A
:101D600081600C22C160C0E904128161C161FFF78A
:101D7000E1FC002803D0BDE81040FEF74BBC10BDCD
:101D80000014014090020020FEE7FEE77047704714
:101D9000FEF7A2BD30B593B030216846FEF75CFA7D
:101DA00014210CA8FEF758FA1D480025016841F0DF
:101DB00080510160006800F080501190194801685E
:101DC00041F4804101600068022400F480401190D9
:101DD0000120039010200490009406940820CDE97F
:101DE0000750A820CDE9090404200B906846FEF7AF
:101DF000F9FE08B172B6FEE70CA90F2081E83100A8
:101E00004FF4A0500F904FF48050109005210CA873
:101E1000FEF7FCFD002801D072B6FEE713B030BD1E
:101E200040380240007000400248016841F47001EF
:101E30000160704788ED00E0F0B50268254C264D42
:101E4000264E274F274B4FF0804CA04209D06045CB
:101E500007D0A84205D0B04203D0B84201D0984282
:101E600004D122F0700E4A6842EA0E02A0421BD052
:101E7000604519D0A84217D0B04215D0B84213D04F
:101E8000984211D0184DA8420ED0184DA8420BD040
:101E9000174DA84208D0174DA84205D0164DA842AC
:101EA00002D0164DA84203D122F44075CA682A43D5
:101EB0004D6922F080022A4302608A68C2620A6881
:101EC0008262A04201D0984201D1096901630121D7
:101ED0004161F0BD000001400004004000080040E6
:101EE000000C00400004014000400140004401405B
:101EF0000048014000180040001C00400020004045
:101F000010B501F01F030121046A99408C4304625B
:101F1000016A9A401143016210BD10B5846842EA1B
:101F2000032224F47F440A432243826010BD826866
:101F300022F070020A4342F00701816070470000FE
:101F4000F0B5026A22F001020262036A4268846903
:101F5000124E24F073050C682C4323F002058B68A5
:101F60002B430D4DA84201D0B04205D123F0080704
:101F7000CB683B4323F00403A84201D0B04205D113
:101F80004D6922F4407215438A692A434260846194
:101F9000496841630362F0BD000001400004014054
:101FA000F0B5026A22F010020262026A4368846994
:101FB0000D6824F4E64444EA05248D6822F02002EA
:101FC00042EA05120F4D104EA84201D0B04206D190
:101FD000CF6822F0800242EA071222F04002A842B3
:101FE00001D0B04207D14D6923F4406343EA850331
:101FF0008D6943EA850343608461496881630262B5
:10200000F0BD00000000014000040140F0B5026A8C
:1020100022F480720262026A4368C46922F4007288
:1020200024F073050C68124E2C438D6842EA052299
:102030000E4DA84201D0B04206D1CF6822F4006212
:1020400042EA072222F48062A84201D0B04207D1BE
:102050004D6923F4405343EA05138D6943EA0513A0
:102060004360C4614968C1630262F0BD0000014081
:102070000004014030B5026A22F480520262046A10
:102080004268C3690D6823F4E64343EA05238D687B
:1020900024F4005444EA0534084DA84202D0084D07
:1020A000A84204D14D6922F4804242EA851242607E
:1020B000C36149680164046230BD00000000014052
:1020C0000004014010B5036A046A24F001040462AC
:1020D000846924F0F00444EA021423F00A020A435B
:1020E0008461026210BD10B5036A23F0100303621D
:1020F0008369046A23F4704343EA023224F0A003A4
:1021000043EA01118261016210BD10B5806B0021AC
:10211000C185C184FFF7D9F910BD01680C3151E8C0
:10212000002F22F4907241E80023002BF5D10168C2
:10213000143151E8002F22F0010241E80023002B66
:10214000F5D1016B012909D101680C3151E8002F4B
:1021500022F0100241E80023002BF5D1202180F865
:102160003E1000210163704708B590F83E10222907
:1021700001D0022008BD82684FF480539A4201D1F9
:10218000016921B1816A9A421BD04AB10AE0026812
:10219000816A5268C2F308020A80816A891C08E0D9
:1021A000026972B10268526802F07F020A70816AA5
:1021B000491C8162C18D491E0904090CC18503D0E7
:1021C00019E002685268F1E70168CA6822F020024B
:1021D000CA600168CA6822F48072CA6001684A69EC
:1021E00022F001024A61202180F83E10016B012992
:1021F00003D0FFF779FB002008BD002101630168CF
:102200000C3151E8002F22F0100241E80023002B8E
:10221000F5D101680A68D20602D50A6849680091BA
:10222000818DFFF751F9E6E770B504460068016952
:10223000E26821F44051114301612169A068E2691B
:1022400008436169114308432168CA6849F20C6375
:102250009A430243CA6020684169A26921F440712F
:102260001143416131492068884202D03049884297
:1022700002D1FEF775FC01E0FEF762FCE269002383
:10228000192164253226B2F5004F626828D0A0FBE0
:102290000101930F9200FDF795FF0146B0FBF5F0A9
:1022A0006FF01802504301EB800006EB0010B0FB0A
:1022B000F5F000F0F002B1FBF5F002EB0012B1FB1B
:1022C000F5F06FF01803584301EB800006EB0010A7
:1022D000B0FBF5F000F00F0021681044886070BD7D
:1022E000A0FB010192185B41FDF76CFF0146B0FBBA
:1022F000F5F00201B1FBF5F06FF01803584301EB64
:10230000800006EBC000B0FBF5F000F0F80002EB37
:102310004002B1FBF5F0584301EB800006EBC00032
:10232000B0FBF5F000F00700D6E700000010014018
:102330000014014081628285C2850021016422224D
:1023400080F83E2080F83C100168CA6842F4807230
:10235000CA6001684A6942F001024A610068C168C6
:1023600041F02001C160002070472DE9F0419846FE
:1023700017460E460446069D27E0681C25D02DB161
:10238000FEF7A4FAA0EB0800A8421ED920680C3082
:1023900050E8001F21F4D07140E80012002AF5D166
:1023A0002068143050E8001F21F0010140E80012BD
:1023B000002AF5D1202084F83D0084F83E0000205A
:1023C00084F83C000320BDE8F0812068006836EA0C
:1023D000000004D00020B842CFD00020F3E7012055
:1023E000F9E700000148FFF771B80000080200207B
:1023F0000148FFF76BB800004C0200200148FFF7CE
:1024000065B8000090020020FEE700000FB4054B05
:1024100010B503A9044A029800F028F810BC5DF832
:1024200014FB0000F9250008280000200907090E08
:10243000002804DB00F1E02080F80014704700F071
:102440000F0000F1E02080F8141D704702E008C87A
:10245000121F08C1002AFAD170477047002001E01E
:1024600001C1121F002AFBD1704700002DE9FF4F68
:1024700089B09B460446002506E025280BD05A4625
:102480000B999047641C6D1C20780028F5D10DB085
:102490002846BDE8F08F0027B8460122474900E0F2
:1024A000074314F8013F203B02FA03F00842F7D13A
:1024B00020782E2819D114F8010F47F004072A2894
:1024C0000ED06FF02F022078A0F1300109290CD82E
:1024D00008EB880102EB410100EB0108641CF2E704
:1024E0000A98641C50F8048B0A9020780028CED0FB
:1024F000642808D0692806D075281ED05A460B9942
:1025000090476D1C58E00A994FF00A0901C90A91D9
:10251000002802DA40422D2102E0390504D52B21A2
:102520008DF82010012103E0F90704D02021F7E7FE
:102530008A4608AE0DE00021FAE70A994FF00A0931
:1025400001C90A91F7E74946FDF7ABFF303106F8BC
:10255000011D0028F7D1ADEB060000F12009780736
:1025600001D44FF00108C84502DDA8EB090000E0E6
:1025700000208046002706E008A85A46C05D0B9957
:1025800090476D1C7F1C5745F6DB04E030205A460F
:102590000B9990476D1CB8F10001A8F10108F5DC1A
:1025A00005E016F8010B5A460B9990476D1CB9F1DE
:1025B0000001A9F10109F4DC641C65E709280100A8
:1025C00070B50446FDF75FFE0021257801230A4619
:1025D0002D2D01D14B1E01226FF02F0506E0A65CC8
:1025E00001EB810105EB41013144521C8242F6DBD3
:1025F00001FB03F070BD000013B54FF6FF7301221D
:1026000069460248FFF7DCF900981CBD080200206B
:1026100070B50C460546FEF753F9012801D000209D
:1026200070BD21462846FEF74BF90128F9D001205C
:1026300070BD0000FEF758F9FFF7ACFBFFF71CFA7E
:10264000FFF776FAFFF74CFBFFF766FBFFF780FB1F
:10265000FFF7DAFA00213F48FEF794FE04213D48D7
:10266000FEF790FE01223C493C48FFF727F93A4922
:102670000822891C3A48FFF721F9102239493A48C3
:10268000FFF71CF900F032FC38A0FFF7BFFE354C15
:102690003B4EDFF8F0803C4D4FF400574FF4FA7991
:1026A00010342D490822891C2D48FFF707F9012114
:1026B0003046FFF7ADFF68B100F0E8FB6068014607
:1026C00000F02AFC31A0FFF7A1FE35A06269616825
:1026D000FFF79CFE04212846FFF79AFF30B100F077
:1026E000A5FB002020703DA0FFF790FE3946404634
:1026F000FFF78EFF58B1484600F05CFC6068014669
:1027000000F00AFC26A062696168FFF77FFE0821DD
:102710002846FFF77DFF58B1484600F029FC606865
:10272000014600F0F9FB33A062696168FFF76EFEB5
:1027300010212846FFF76CFF0028B2D000F06AFB9A
:102740006068014600F0E8FB3A4862696168FFF79B
:102750005DFEA6E7780100200100002008020020AD
:102760004C0200202C0100209002002068656C6C57
:102770006F204655584920524F424F54210A0000BD
:102780000000024000080240001802403C206B6537
:1027900079203E206D6F746F722031206F6E0A00B9
:1027A0003C206B6579203E206D6F746F7220312064
:1027B00073706565642075702C2063757272656E28
:1027C000742073706565643A2025642C20646972F6
:1027D000656374696F6E3A2025640A003C206B655E
:1027E00079203E206D6F746F722031206F66660A0B
:1027F000000000003C206B6579203E206D6F746FF7
:1028000072203120737065656420646F776E2C20B0
:1028100063757272656E742073706565643A202505
:10282000642C20646972656374696F6E3A20256454
:102830000A000000003600083EB5104CA168814235
:1028400001460AD10EA0FFF7E1FD4FF0FF30A06076
:102850000020207000F0EAFA02E011A0FFF7D6FD98
:1028600004F10C0007C88DE80700D4E901232178A2
:102870001248FFF7CBFD00203EBD00003C010020C8
:102880003C20726F626F74203E20617272697665BF
:102890006420746172676574202564210A00000059
:1028A0003C20726F626F74203E206172726976659F
:1028B00064206174202564210A0000004836000865
:1028C0002DE9F04790B00146684600F095FB474877
:1028D000DDE90021C0E9032100F10C07444C97F821
:1028E00000C000254FF002094FF0010A04F1100367
:1028F000A4F11006BCF10D0F5ED2DFE80CF0071159
:1029000013272C394042444E6C74460039A0FFF71F
:102910007DFDD4E9030100F0FFFA84F800904BE05C
:102920003BA026E041A06160FFF770FD6068E060B9
:102930002061217802293FD1010003D54FF0FF31FA
:10294000616101E0C4F814A001460EE041A0A1605D
:10295000FFF75CFD04E049A0FFF758FD7868A06030
:102960002078032828D0D4E9030100F0D5FA23E029
:1029700049A0FFF74BFD00F059FA25701CE050A06C
:10298000F7E758A0F5E760A0F3E78078CDE90B21E1
:10299000CDE90D052C22194606E08078CDE90B2102
:1029A000CDE90D0A2C2219466846FDF73CFC10368D
:1029B00096E80F0000F0F2F804F10C0007C88DE86B
:1029C0000700D4E9012321785848FFF71FFD10B014
:1029D0000020BDE8F0878078CDE90B21CDE90D0915
:1029E0002C221946E0E70325CFE700000000002075
:1029F0003C0100203C20616E73776572203E3C20D4
:102A00004F4B203E5B207374617274205D0A00009E
:102A10003C20616E73776572203E3C204F4B203E18
:102A20005B2073746F70205D0A0000003C20616EB3
:102A300073776572203E3C204F4B203E5B207365D0
:102A400074205D5B207370656564205D3A202564A9
:102A50000A0000003C20616E73776572203E3C20C6
:102A60004F4B203E5B20736574205D5B2074617268
:102A7000676574205D3A2025640A00003C20616E81
:102A800073776572203E3C204F4B203E5B2063688D
:102A900061726765205D0A003C20616E7377657224
:102AA000203E3C204F4B203E5B2077616C6B205DCD
:102AB0005B20666F7277617264205D0A000000001F
:102AC0003C20616E73776572203E3C204F4B203E68
:102AD0005B2077616C6B205D5B2072656172205DAD
:102AE0000A0000003C20616E73776572203E3C2036
:102AF0004F4B203E5B2077616C6B205D5B206C65EB
:102B00006674205D0A0000003C20616E7377657278
:102B1000203E3C204F4B203E5B2077616C6B205D5C
:102B20005B207269676874205D0A000048360008FF
:102B300010B5ACB040790C90302217496846FDF7CB
:102B400072FB15480C3890E80E001CA800F06AFCD7
:102B50003C221CA90DA8FDF766FB0F4910980C3903
:102B60000DF13402C8601198086113988861002043
:102B700002EB800301EB8004DB69401CE361082861
:102B8000F6DB0878022803D1DDE9100100F0C4F972
:102B90002CB0002010BD0000480100202DE9F04FAE
:102BA00087B00D46DDE9129ADDF854B01C9F1E99DE
:102BB00014469846C6B231B101292FD002293DD022
:102BC000032948D13DE026A0FFF720FCDDE91001F4
:102BD000CDF80080CDE9010123462A463146294837
:102BE000FFF714FC0DF15C0C9CE80F000DF1080CD4
:102BF0008CE80F0016985246CDE900B049462248AD
:102C0000149BFFF703FC21A01D99FFF7FFFB1B9806
:102C10003A46C1B224A0FFF7F9FB1CE036B1012E01
:102C200006D0022E06D0032E15D105E028A010E014
:102C300032A00EE03DA00CE048A00AE0294653A0D7
:102C400003E0601C04D011465AA0FFF7DFFB02E04E
:102C500063A0FFF7DBFB07B00020BDE8F08F0000AA
:102C60003C20616E73776572203E3C204F4B203EC6
:102C70005B207175657279205D5B20616C6C205DF5
:102C80000A000000A43500085C3500082D2D2D2D0C
:102C90002D206D6F746F722020202D20737461744D
:102CA00075733A2025640A002D2D2D2D2D20636F7C
:102CB0006D6D616E64202D206B696E643A20256411
:102CC000202C2076616C75653A2025640A0000008E
:102CD0003C20616E73776572203E3C204F4B203E56
:102CE0005B207175657279205D5B2073746174651A
:102CF000205D3A2052454144590A00003C20616E53
:102D000073776572203E3C204F4B203E5B207175EF
:102D1000657279205D5B207374617465205D3A2073
:102D200053544F505045440A000000003C20616E4F
:102D300073776572203E3C204F4B203E5B207175BF
:102D4000657279205D5B207374617465205D3A2043
:102D500052554E4E494E470A000000003C20616E1D
:102D600073776572203E3C204F4B203E5B2071758F
:102D7000657279205D5B207374617465205D3A2013
:102D800044455241494C45440A0000003C20616ED4
:102D900073776572203E3C204F4B203E5B2071755F
:102DA000657279205D5B207370656564205D3A20F3
:102DB00025640A003C20616E73776572203E3C20DA
:102DC0004F4B203E5B207175657279205D5B2074EE
:102DD0006172676574205D3A2025640A0000000076
:102DE0003C20616E73776572203E3C204F4B203E45
:102DF0005B207175657279205D5B20746172676517
:102E000074205D3A206E6F20746172676574210AC8
:102E1000000000000448416949424161416849425B
:102E200041600020704700003C01002010B50D4CAF
:102E3000A078A0B900210C48FEF708FB04210A483D
:102E4000FEF704FB00210948FEF700FB04210748B8
:102E5000FEF7FCFA0120A07005A0FFF7D7FA0020CA
:102E600010BD00000000002078010020C0010020FB
:102E70003C20726F626F74203E20726F626F74200C
:102E800064697361626C65210A00000010B50D4C25
:102E9000A078012814D100210B48FEF773FA042111
:102EA0000948FEF76FFA00210848FEF76BFA042183
:102EB0000648FEF767FA0020A07005A0FFF7A6FA03
:102EC000002010BD0000002078010020C00100207B
:102ED0003C20726F626F74203E20726F626F7420AC
:102EE000656E61626C65210A0000000008484FF4BD
:102EF000FA614160C16001614FF0FF3181600021E2
:102F00000170012141610348817000207047000079
:102F10003C0100200000002070B50C460546FFF77C
:102F2000B5FF104B104800215E69104A012E06685B
:102F300010D07163002D00DC6D420068856310685D
:102F40004163002C00DC6442106884630220187026
:102F5000002070BD75630068816310684463106869
:102F60008163F3E73C01002078010020C0010020CC
:102F70000F494B684A6900FB12304860002800DCAA
:102F8000404241F27C53984201DA486803E041F242
:102F90007C5050434860002800DC4042B0F57A7F06
:102FA00003DC4FF47A7042434A600020704700000F
:102FB0003C0100200F494B684A6900FB0230486021
:102FC000002800DC404241F27C53984201DA486814
:102FD00003E041F27C5050434860002800DC40424E
:102FE000B0F57A7F03DC4FF47A7042434A600020E8
:102FF000704700003C0100202DE9F0470027C2B0D7
:1030000082463E46885D202801D03B2834D0761C7D
:10301000FF2EF7DD0E464FF480716846FDF71CF970
:103020007A1E31466846FDF722F967A168460968AD
:10303000409140A9FDF73CF95FEA00091BD040A987
:103040000020FDF735F95FEA00084FF00D074FF05B
:10305000FF365ED05DA14846FDF71CF970B15DA159
:103060004846FDF717F900281CD05BA14846FDF73C
:1030700011F9002822D08BE0771CCBE74046FFF700
:103080009FFA051E00DC684241F29511A0F57A70A6
:10309000884201D352A065E0294661A0FFF7B6F946
:1030A000022008E04046FFF78BFA0546014665A07E
:1030B000FFF7ACF9032060F3070469E069A140461B
:1030C000FDF7E8F878B141A14046FDF7E3F888B193
:1030D00066A14046FDF7DEF888B166A14046FDF7DF
:1030E000D9F888B13DE064A0FFF790F9092067E0C6
:1030F00035464DE068A0FFF789F90A2060E06EA030
:10310000FFF784F90B205BE073A0FFF77FF90C2039
:1031100056E079A14846FDF7BDF840B378A148468E
:10312000FDF7B8F840B378A14846FDF7B3F800289A
:1031300027D077A14846FDF7ADF800282DD076A11D
:103140004846FDF7A7F800282CD075A14846FDF7A2
:10315000A1F800282BD074A14846FDF79BF8002861
:103160002AD073A0FFF752F967F30704C0E77BA0EA
:10317000FFF74CF9002023E07EA0FFF747F901207C
:103180001EE082A0FFF742F9042060F307045B25EC
:10319000CAE9004542B0BDE8F08782A0FFF736F9E2
:1031A00005200DE087A0FFF731F9062008E08DA08B
:1031B000FFF72CF9072003E092A0FFF727F908207A
:1031C00060F3070494E70000200000007370656559
:1031D00064000000746F0000717565727900000072
:1031E0003C20636F6D6D616E64203E3C2045525201
:1031F0004F52203E3A2053706565642069732074F5
:103200006F6F2068696768206F7220746F6F20731A
:103210006C6F772C206572726F72210A00000000BB
:103220003C20636F6D6D616E64203E5B207365743E
:10323000205D5B207370656564205D3A2025640A1B
:10324000000000003C636F6D6D616E643E5B207337
:103250006574205D5B20746172676574205D3A203F
:1032600025640A00737461746500000074617267FC
:1032700065740000616C6C003C20636F6D6D616E65
:1032800064203E5B207175657279205D5B207374EC
:10329000617465205D0A00003C20636F6D6D616E96
:1032A00064203E5B207175657279205D5B207370D0
:1032B000656564205D0A00003C20636F6D6D616E82
:1032C00064203E5B207175657279205D5B207461BE
:1032D00072676574205D0A003C20636F6D6D616EDE
:1032E00064203E5B207175657279205D5B20616CA6
:1032F0006C205D0A000000007374617274000000AD
:1033000073746F700000000063686172676500008D
:10331000666F7277617264006261636B0000000027
:103320006C656674000000007269676874000000D4
:103330003C20636F6D6D616E64203E3C20455252AF
:103340004F52203E3A20436F6D6D616E6420697369
:10335000206572726F72210A000000003C20636FCA
:103360006D6D616E64203E5B207374617274205DCC
:103370000A0000003C20636F6D6D616E64203E5B4F
:103380002073746F70205D0A000000003C20636FA2
:103390006D6D616E64203E5B2063686172676520BD
:1033A0005D0A00003C20636F6D6D616E64203E5BC2
:1033B0002077616C6B205D5B20666F727761726451
:1033C000205D0A003C20636F6D6D616E64203E5B82
:1033D0002077616C6B205D5B2072656172205D0AF5
:1033E000000000003C20636F6D6D616E64203E5BE9
:1033F0002077616C6B205D5B206C656674205D0AD4
:10340000000000003C20636F6D6D616E64203E5BC8
:103410002077616C6B205D5B207269676874205D4A
:103420000A0000000FB4002270B504462DED048B95
:10343000154618990F9109A801EBD17300EB820092
:1034400023F00106891BC1615910521C082AF2DBC6
:10345000DDE910010844DDE9121211440144DDE9FF
:1034600014021044DDE916231A441044091A0429F1
:1034700013D003299FED2F8B13D002291CD00129D3
:103480009FED2E9B1CD0481C28D0881C2FD0C81C18
:1034900032D00A98091D3ED00BE00A9800F57A70E8
:1034A00007E00A98FCF7CDFF41EC100B53EC182B0A
:1034B0000DE00C900A9832E00A9800F5FA70F8E7EF
:1034C0000A98FCF7BEFF53EC192B41EC100B51ECA2
:1034D000100BFCF70FFFFCF7C5FFEAE70A980C900A
:1034E000FCF7AFFF41EC100B53EC192B0CE00A98E2
:1034F0000C9000F5FA7012E00A980C90FCF7A1FF0E
:1035000053EC182B41EC100B51EC100BFCF7F2FEB6
:10351000FCF7A8FF03E00C900A9800F57A700D9074
:103520003C2209A92046FCF77EFEBDEC048B70BC52
:103530005DF814FB000000000070874000000000F0
:1035400000406F4000000000000000000102030482
:103550000607080900000000010203042D2D2D2D8F
:103560002D20726F626F742020202D206D61676E98
:10357000657469632076616C75653A202564202C3A
:10358000207374617475733A2025642025642025A6
:10359000642520642025642025642025642025647A
:1035A0000A0000002D2D2D2D2D20726F626F7420CA
:1035B00020202D2073746174653A202564202C200E
:1035C00073706565643A202564202C2074617267ED
:1035D00065743A202564202C206C6566743A202599
:1035E00064202C2072696768743A202564202C209E
:1035F000646972656374696F6E3A25640A0000003D
:103600003C206B6579203E206D6F746F72203120F5
:10361000646972656374696F6E2072657665727332
:10362000652C2063757272656E74207370656564B5
:103630003A2025642C20646972656374696F6E3A60
:103640002025640A000000003C20726F626F742025
:103650003E2073746174653A2025642C2073706574
:1036600065643A2025642C207461726765743A2081
:1036700025642C206C6566743A2025642C207269C0
:103680006768743A2025642C2064697265637469E4
:103690006F6E3A25640A0000B8360008000000206A
:1036A0002C0000004C240008E43600082C00002008
:1036B000AC0600005C2400080000000000000000D0
:1036C00000000000000000000000000001000000F9
:1036D00010000000000000000024F40000000000C2
:0436E00000000000E6
:040000050800018965
:00000001FF
